{
  "address": "0x5FbDB2315678afecb367f032d93F642f64180aa3",
  "abi": [
    {
      "inputs": [
        {
          "internalType": "enum PlayerMove",
          "name": "move",
          "type": "uint8"
        }
      ],
      "name": "addPlayerMove",
      "outputs": [],
      "stateMutability": "nonpayable",
      "type": "function"
    },
    {
      "inputs": [
        {
          "internalType": "uint256",
          "name": "_wager",
          "type": "uint256"
        }
      ],
      "name": "joinGame",
      "outputs": [],
      "stateMutability": "nonpayable",
      "type": "function"
    }
  ],
  "transactionHash": "0x7b6e9f27883ab72a7f25b2ecbb05489ff5b15311aee28d28035765991e38a0c2",
  "args": [],
  "solcInputHash": "e5a1ed7f5e4227d34444798bee714c7f",
  "bytecode": "0x608060405234801561001057600080fd5b50610511806100206000396000f3fe608060405234801561001057600080fd5b50600436106100365760003560e01c806347831e561461003b578063efaa55a014610057575b600080fd5b6100556004803603810190610050919061039d565b610073565b005b610071600480360381019061006c91906103c6565b61012d565b005b600360003373ffffffffffffffffffffffffffffffffffffffff1673ffffffffffffffffffffffffffffffffffffffff1681526020019081526020016000208190806001815401808255809150506001900390600052602060002090602091828204019190069091909190916101000a81548160ff02191690836003811115610125577f4e487b7100000000000000000000000000000000000000000000000000000000600052602160045260246000fd5b021790555050565b600073ffffffffffffffffffffffffffffffffffffffff16600160009054906101000a900473ffffffffffffffffffffffffffffffffffffffff1673ffffffffffffffffffffffffffffffffffffffff1614156101d15733600160006101000a81548173ffffffffffffffffffffffffffffffffffffffff021916908373ffffffffffffffffffffffffffffffffffffffff160217905550806000819055506102ae565b600073ffffffffffffffffffffffffffffffffffffffff16600260009054906101000a900473ffffffffffffffffffffffffffffffffffffffff1673ffffffffffffffffffffffffffffffffffffffff16141561026e5733600260006101000a81548173ffffffffffffffffffffffffffffffffffffffff021916908373ffffffffffffffffffffffffffffffffffffffff1602179055506102ad565b6102ac6040518060400160405280600c81526020017f47616d652069732066756c6c00000000000000000000000000000000000000008152506102b1565b5b5b50565b610347816040516024016102c59190610428565b6040516020818303038152906040527f41304fac000000000000000000000000000000000000000000000000000000007bffffffffffffffffffffffffffffffffffffffffffffffffffffffff19166020820180517bffffffffffffffffffffffffffffffffffffffffffffffffffffffff838183161783525050505061034a565b50565b60008151905060006a636f6e736f6c652e6c6f679050602083016000808483855afa5050505050565b600081359050610382816104b4565b92915050565b600081359050610397816104c4565b92915050565b6000602082840312156103af57600080fd5b60006103bd84828501610373565b91505092915050565b6000602082840312156103d857600080fd5b60006103e684828501610388565b91505092915050565b60006103fa8261044a565b6104048185610455565b9350610414818560208601610470565b61041d816104a3565b840191505092915050565b6000602082019050818103600083015261044281846103ef565b905092915050565b600081519050919050565b600082825260208201905092915050565b6000819050919050565b60005b8381101561048e578082015181840152602081019050610473565b8381111561049d576000848401525b50505050565b6000601f19601f8301169050919050565b600481106104c157600080fd5b50565b6104cd81610466565b81146104d857600080fd5b5056fea2646970667358221220e94cc6c551d23fc83109d3960f05349ed6e8cd941e2024321ba4a805fd88029064736f6c63430008040033",
  "devdoc": {
    "kind": "dev",
    "methods": {},
    "version": 1
  },
  "userdoc": {
    "kind": "user",
    "methods": {},
    "version": 1
  },
  "storageLayout": {
    "storage": [
      {
        "astId": 700,
        "contract": "contracts/Game.sol:Game",
        "label": "gameWager",
        "offset": 0,
        "slot": "0",
        "type": "t_uint256"
      },
      {
        "astId": 702,
        "contract": "contracts/Game.sol:Game",
        "label": "player1",
        "offset": 0,
        "slot": "1",
        "type": "t_address"
      },
      {
        "astId": 704,
        "contract": "contracts/Game.sol:Game",
        "label": "player2",
        "offset": 0,
        "slot": "2",
        "type": "t_address"
      },
      {
        "astId": 710,
        "contract": "contracts/Game.sol:Game",
        "label": "playerMoves",
        "offset": 0,
        "slot": "3",
        "type": "t_mapping(t_address,t_array(t_enum(PlayerMove)679)dyn_storage)"
      }
    ],
    "types": {
      "t_address": {
        "encoding": "inplace",
        "label": "address",
        "numberOfBytes": "20"
      },
      "t_array(t_enum(PlayerMove)679)dyn_storage": {
        "base": "t_enum(PlayerMove)679",
        "encoding": "dynamic_array",
        "label": "enum PlayerMove[]",
        "numberOfBytes": "32"
      },
      "t_enum(PlayerMove)679": {
        "encoding": "inplace",
        "label": "enum PlayerMove",
        "numberOfBytes": "1"
      },
      "t_mapping(t_address,t_array(t_enum(PlayerMove)679)dyn_storage)": {
        "encoding": "mapping",
        "key": "t_address",
        "label": "mapping(address => enum PlayerMove[])",
        "numberOfBytes": "32",
        "value": "t_array(t_enum(PlayerMove)679)dyn_storage"
      },
      "t_uint256": {
        "encoding": "inplace",
        "label": "uint256",
        "numberOfBytes": "32"
      }
    }
  }
}