{
  "address": "0x5FbDB2315678afecb367f032d93F642f64180aa3",
  "abi": [
    {
      "anonymous": false,
      "inputs": [
        {
          "indexed": false,
          "internalType": "address",
          "name": "winner",
          "type": "address"
        }
      ],
      "name": "GameWinner",
      "type": "event"
    },
    {
      "anonymous": false,
      "inputs": [
        {
          "indexed": true,
          "internalType": "address",
          "name": "winner",
          "type": "address"
        }
      ],
      "name": "GameWon",
      "type": "event"
    },
    {
      "anonymous": false,
      "inputs": [
        {
          "indexed": false,
          "internalType": "enum Move",
          "name": "player1Move",
          "type": "uint8"
        },
        {
          "indexed": false,
          "internalType": "enum Move",
          "name": "player2Move",
          "type": "uint8"
        },
        {
          "indexed": false,
          "internalType": "uint8",
          "name": "round",
          "type": "uint8"
        }
      ],
      "name": "MovesSelected",
      "type": "event"
    },
    {
      "anonymous": false,
      "inputs": [
        {
          "indexed": false,
          "internalType": "uint16",
          "name": "player1Score",
          "type": "uint16"
        },
        {
          "indexed": false,
          "internalType": "uint16",
          "name": "player2Score",
          "type": "uint16"
        }
      ],
      "name": "RoundScored",
      "type": "event"
    },
    {
      "inputs": [
        {
          "internalType": "enum Move",
          "name": "move",
          "type": "uint8"
        }
      ],
      "name": "addPlayerMove",
      "outputs": [],
      "stateMutability": "nonpayable",
      "type": "function"
    },
    {
      "inputs": [],
      "name": "currentRound",
      "outputs": [
        {
          "internalType": "uint8",
          "name": "",
          "type": "uint8"
        }
      ],
      "stateMutability": "view",
      "type": "function"
    },
    {
      "inputs": [],
      "name": "gameState",
      "outputs": [
        {
          "internalType": "enum GameState",
          "name": "",
          "type": "uint8"
        }
      ],
      "stateMutability": "view",
      "type": "function"
    },
    {
      "inputs": [],
      "name": "gameWager",
      "outputs": [
        {
          "internalType": "uint256",
          "name": "",
          "type": "uint256"
        }
      ],
      "stateMutability": "view",
      "type": "function"
    },
    {
      "inputs": [],
      "name": "getGameWager",
      "outputs": [
        {
          "internalType": "uint256",
          "name": "",
          "type": "uint256"
        }
      ],
      "stateMutability": "view",
      "type": "function"
    },
    {
      "inputs": [
        {
          "internalType": "address",
          "name": "_player",
          "type": "address"
        }
      ],
      "name": "getPlayerMove",
      "outputs": [
        {
          "internalType": "enum Move",
          "name": "",
          "type": "uint8"
        }
      ],
      "stateMutability": "view",
      "type": "function"
    },
    {
      "inputs": [
        {
          "internalType": "uint256",
          "name": "_wager",
          "type": "uint256"
        }
      ],
      "name": "joinGame",
      "outputs": [],
      "stateMutability": "nonpayable",
      "type": "function"
    },
    {
      "inputs": [],
      "name": "player1",
      "outputs": [
        {
          "internalType": "address",
          "name": "",
          "type": "address"
        }
      ],
      "stateMutability": "view",
      "type": "function"
    },
    {
      "inputs": [],
      "name": "player2",
      "outputs": [
        {
          "internalType": "address",
          "name": "",
          "type": "address"
        }
      ],
      "stateMutability": "view",
      "type": "function"
    },
    {
      "inputs": [],
      "name": "startGame",
      "outputs": [],
      "stateMutability": "nonpayable",
      "type": "function"
    }
  ],
  "transactionHash": "0xf26d64f742e1471590fc4841024777ca8b15a7869da1d44b6f769cd6059a6642",
  "args": [],
  "solcInputHash": "82c64a7ad5a7a947d56303f76aa8c4c3",
  "bytecode": "0x608060405234801561001057600080fd5b50611496806100206000396000f3fe608060405234801561001057600080fd5b506004361061009e5760003560e01c8063c1b859dd11610066578063c1b859dd14610149578063d1f9c24d14610167578063d30895e414610185578063d65ab5f2146101a3578063efaa55a0146101ad5761009e565b806347831e56146100a357806359a5f12d146100bf5780638a19c8bc146100dd578063b6c6c762146100fb578063befe9ed71461012b575b600080fd5b6100bd60048036038101906100b89190610f55565b6101c9565b005b6100c7610771565b6040516100d49190611071565b60405180910390f35b6100e5610797565b6040516100f2919061113f565b60405180910390f35b61011560048036038101906101109190610f2c565b6107aa565b60405161012291906110a7565b60405180910390f35b61013361085c565b6040516101409190611124565b60405180910390f35b610151610865565b60405161015e9190611124565b60405180910390f35b61016f61086b565b60405161017c919061108c565b60405180910390f35b61018d61087e565b60405161019a9190611071565b60405180910390f35b6101ab6108a4565b005b6101c760048036038101906101c29190610f7e565b6109e4565b005b60016002811115610203577f4e487b7100000000000000000000000000000000000000000000000000000000600052602160045260246000fd5b600260159054906101000a900460ff16600281111561024b577f4e487b7100000000000000000000000000000000000000000000000000000000600052602160045260246000fd5b1461028b576040517f08c379a0000000000000000000000000000000000000000000000000000000008152600401610282906110e4565b60405180910390fd5b600360003373ffffffffffffffffffffffffffffffffffffffff1673ffffffffffffffffffffffffffffffffffffffff1681526020019081526020016000208190806001815401808255809150506001900390600052602060002090602091828204019190069091909190916101000a81548160ff0219169083600381111561033d577f4e487b7100000000000000000000000000000000000000000000000000000000600052602160045260246000fd5b0217905550600060036000600160009054906101000a900473ffffffffffffffffffffffffffffffffffffffff1673ffffffffffffffffffffffffffffffffffffffff1673ffffffffffffffffffffffffffffffffffffffff168152602001908152602001600020600260149054906101000a900460ff1660ff16815481106103ef577f4e487b7100000000000000000000000000000000000000000000000000000000600052603260045260246000fd5b90600052602060002090602091828204019190069054906101000a900460ff169050600060036000600260009054906101000a900473ffffffffffffffffffffffffffffffffffffffff1673ffffffffffffffffffffffffffffffffffffffff1673ffffffffffffffffffffffffffffffffffffffff168152602001908152602001600020600260149054906101000a900460ff1660ff16815481106104be577f4e487b7100000000000000000000000000000000000000000000000000000000600052603260045260246000fd5b90600052602060002090602091828204019190069054906101000a900460ff1690506000600381111561051a577f4e487b7100000000000000000000000000000000000000000000000000000000600052602160045260246000fd5b826003811115610553577f4e487b7100000000000000000000000000000000000000000000000000000000600052602160045260246000fd5b141580156105d2575060006003811115610596577f4e487b7100000000000000000000000000000000000000000000000000000000600052602160045260246000fd5b8160038111156105cf577f4e487b7100000000000000000000000000000000000000000000000000000000600052602160045260246000fd5b14155b1561076c5760006105e38383610b68565b9050600073ffffffffffffffffffffffffffffffffffffffff168173ffffffffffffffffffffffffffffffffffffffff1614610733576001600460008373ffffffffffffffffffffffffffffffffffffffff1673ffffffffffffffffffffffffffffffffffffffff16815260200190815260200160002060008282829054906101000a900461ffff166106769190611176565b92506101000a81548161ffff021916908361ffff16021790555061069981610cb9565b15610732578073ffffffffffffffffffffffffffffffffffffffff167f78b3193cf31372e77b1f3045481681f86e18e346de12ae7f1ecc322ff0adf1a460405160405180910390a260028060156101000a81548160ff0219169083600281111561072c577f4e487b7100000000000000000000000000000000000000000000000000000000600052602160045260246000fd5b02179055505b5b6001600260148282829054906101000a900460ff1661075291906111ae565b92506101000a81548160ff021916908360ff160217905550505b505050565b600260009054906101000a900473ffffffffffffffffffffffffffffffffffffffff1681565b600260149054906101000a900460ff1681565b6000600360008373ffffffffffffffffffffffffffffffffffffffff1673ffffffffffffffffffffffffffffffffffffffff168152602001908152602001600020600260149054906101000a900460ff1660ff1681548110610835577f4e487b7100000000000000000000000000000000000000000000000000000000600052603260045260246000fd5b90600052602060002090602091828204019190069054906101000a900460ff169050919050565b60008054905090565b60005481565b600260159054906101000a900460ff1681565b600160009054906101000a900473ffffffffffffffffffffffffffffffffffffffff1681565b600073ffffffffffffffffffffffffffffffffffffffff16600160009054906101000a900473ffffffffffffffffffffffffffffffffffffffff1673ffffffffffffffffffffffffffffffffffffffff16141580156109525750600073ffffffffffffffffffffffffffffffffffffffff16600260009054906101000a900473ffffffffffffffffffffffffffffffffffffffff1673ffffffffffffffffffffffffffffffffffffffff1614155b610991576040517f08c379a000000000000000000000000000000000000000000000000000000000815260040161098890611104565b60405180910390fd5b6001600260156101000a81548160ff021916908360028111156109dd577f4e487b7100000000000000000000000000000000000000000000000000000000600052602160045260246000fd5b0217905550565b600073ffffffffffffffffffffffffffffffffffffffff16600160009054906101000a900473ffffffffffffffffffffffffffffffffffffffff1673ffffffffffffffffffffffffffffffffffffffff161415610a885733600160006101000a81548173ffffffffffffffffffffffffffffffffffffffff021916908373ffffffffffffffffffffffffffffffffffffffff16021790555080600081905550610b65565b600073ffffffffffffffffffffffffffffffffffffffff16600260009054906101000a900473ffffffffffffffffffffffffffffffffffffffff1673ffffffffffffffffffffffffffffffffffffffff161415610b255733600260006101000a81548173ffffffffffffffffffffffffffffffffffffffff021916908373ffffffffffffffffffffffffffffffffffffffff160217905550610b64565b610b636040518060400160405280600c81526020017f47616d652069732066756c6c0000000000000000000000000000000000000000815250610e2b565b5b5b50565b6000816003811115610ba3577f4e487b7100000000000000000000000000000000000000000000000000000000600052602160045260246000fd5b836003811115610bdc577f4e487b7100000000000000000000000000000000000000000000000000000000600052602160045260246000fd5b1115610c0c57600160009054906101000a900473ffffffffffffffffffffffffffffffffffffffff169050610cb3565b826003811115610c45577f4e487b7100000000000000000000000000000000000000000000000000000000600052602160045260246000fd5b826003811115610c7e577f4e487b7100000000000000000000000000000000000000000000000000000000600052602160045260246000fd5b1115610cae57600260009054906101000a900473ffffffffffffffffffffffffffffffffffffffff169050610cb3565b600090505b92915050565b600080600460008473ffffffffffffffffffffffffffffffffffffffff1673ffffffffffffffffffffffffffffffffffffffff16815260200190815260200160002060009054906101000a900461ffff1690506000600160009054906101000a900473ffffffffffffffffffffffffffffffffffffffff1673ffffffffffffffffffffffffffffffffffffffff168473ffffffffffffffffffffffffffffffffffffffff161415610d8e57600260009054906101000a900473ffffffffffffffffffffffffffffffffffffffff169050610d9d565b600160009054906101000a9050505b60028261ffff1610158015610e0f57506001600460008373ffffffffffffffffffffffffffffffffffffffff1673ffffffffffffffffffffffffffffffffffffffff16815260200190815260200160002060009054906101000a900461ffff1683610e0891906111e5565b61ffff1610155b15610e1f57600192505050610e26565b6000925050505b919050565b610ec181604051602401610e3f91906110c2565b6040516020818303038152906040527f41304fac000000000000000000000000000000000000000000000000000000007bffffffffffffffffffffffffffffffffffffffffffffffffffffffff19166020820180517bffffffffffffffffffffffffffffffffffffffffffffffffffffffff8381831617835250505050610ec4565b50565b60008151905060006a636f6e736f6c652e6c6f679050602083016000808483855afa5050505050565b600081359050610efc81611422565b92915050565b600081359050610f1181611439565b92915050565b600081359050610f2681611449565b92915050565b600060208284031215610f3e57600080fd5b6000610f4c84828501610eed565b91505092915050565b600060208284031215610f6757600080fd5b6000610f7584828501610f02565b91505092915050565b600060208284031215610f9057600080fd5b6000610f9e84828501610f17565b91505092915050565b610fb081611219565b82525050565b610fbf81611296565b82525050565b610fce816112a8565b82525050565b6000610fdf8261115a565b610fe98185611165565b9350610ff98185602086016112ba565b6110028161134b565b840191505092915050565b600061101a602183611165565b91506110258261135c565b604082019050919050565b600061103d602283611165565b9150611048826113ab565b604082019050919050565b61105c8161127f565b82525050565b61106b81611289565b82525050565b60006020820190506110866000830184610fa7565b92915050565b60006020820190506110a16000830184610fb6565b92915050565b60006020820190506110bc6000830184610fc5565b92915050565b600060208201905081810360008301526110dc8184610fd4565b905092915050565b600060208201905081810360008301526110fd8161100d565b9050919050565b6000602082019050818103600083015261111d81611030565b9050919050565b60006020820190506111396000830184611053565b92915050565b60006020820190506111546000830184611062565b92915050565b600081519050919050565b600082825260208201905092915050565b600061118182611251565b915061118c83611251565b92508261ffff038211156111a3576111a26112ed565b5b828201905092915050565b60006111b982611289565b91506111c483611289565b92508260ff038211156111da576111d96112ed565b5b828201905092915050565b60006111f082611251565b91506111fb83611251565b92508282101561120e5761120d6112ed565b5b828203905092915050565b60006112248261125f565b9050919050565b6000819050611239826113fa565b919050565b600081905061124c8261140e565b919050565b600061ffff82169050919050565b600073ffffffffffffffffffffffffffffffffffffffff82169050919050565b6000819050919050565b600060ff82169050919050565b60006112a18261122b565b9050919050565b60006112b38261123e565b9050919050565b60005b838110156112d85780820151818401526020810190506112bd565b838111156112e7576000848401525b50505050565b7f4e487b7100000000000000000000000000000000000000000000000000000000600052601160045260246000fd5b7f4e487b7100000000000000000000000000000000000000000000000000000000600052602160045260246000fd5b6000601f19601f8301169050919050565b7f47616d65206973206e6f7420726561647920746f20616363657074206d6f766560008201527f7300000000000000000000000000000000000000000000000000000000000000602082015250565b7f506c61796572732068617665206e6f74206265656e2061737369676e6564207960008201527f6574000000000000000000000000000000000000000000000000000000000000602082015250565b6003811061140b5761140a61131c565b5b50565b6004811061141f5761141e61131c565b5b50565b61142b81611219565b811461143657600080fd5b50565b6004811061144657600080fd5b50565b6114528161127f565b811461145d57600080fd5b5056fea2646970667358221220cd35119f1d66655a9625426e700c61c6f5c2b0378615ae5b52730cabc29c0bc264736f6c63430008040033",
  "devdoc": {
    "kind": "dev",
    "methods": {},
    "version": 1
  },
  "userdoc": {
    "kind": "user",
    "methods": {},
    "version": 1
  },
  "storageLayout": {
    "storage": [
      {
        "astId": 704,
        "contract": "contracts/Game.sol:Game",
        "label": "gameWager",
        "offset": 0,
        "slot": "0",
        "type": "t_uint256"
      },
      {
        "astId": 706,
        "contract": "contracts/Game.sol:Game",
        "label": "player1",
        "offset": 0,
        "slot": "1",
        "type": "t_address"
      },
      {
        "astId": 708,
        "contract": "contracts/Game.sol:Game",
        "label": "player2",
        "offset": 0,
        "slot": "2",
        "type": "t_address"
      },
      {
        "astId": 710,
        "contract": "contracts/Game.sol:Game",
        "label": "currentRound",
        "offset": 20,
        "slot": "2",
        "type": "t_uint8"
      },
      {
        "astId": 713,
        "contract": "contracts/Game.sol:Game",
        "label": "gameState",
        "offset": 21,
        "slot": "2",
        "type": "t_enum(GameState)683"
      },
      {
        "astId": 719,
        "contract": "contracts/Game.sol:Game",
        "label": "playerMoves",
        "offset": 0,
        "slot": "3",
        "type": "t_mapping(t_address,t_array(t_enum(Move)679)dyn_storage)"
      },
      {
        "astId": 723,
        "contract": "contracts/Game.sol:Game",
        "label": "playerScores",
        "offset": 0,
        "slot": "4",
        "type": "t_mapping(t_address,t_uint16)"
      }
    ],
    "types": {
      "t_address": {
        "encoding": "inplace",
        "label": "address",
        "numberOfBytes": "20"
      },
      "t_array(t_enum(Move)679)dyn_storage": {
        "base": "t_enum(Move)679",
        "encoding": "dynamic_array",
        "label": "enum Move[]",
        "numberOfBytes": "32"
      },
      "t_enum(GameState)683": {
        "encoding": "inplace",
        "label": "enum GameState",
        "numberOfBytes": "1"
      },
      "t_enum(Move)679": {
        "encoding": "inplace",
        "label": "enum Move",
        "numberOfBytes": "1"
      },
      "t_mapping(t_address,t_array(t_enum(Move)679)dyn_storage)": {
        "encoding": "mapping",
        "key": "t_address",
        "label": "mapping(address => enum Move[])",
        "numberOfBytes": "32",
        "value": "t_array(t_enum(Move)679)dyn_storage"
      },
      "t_mapping(t_address,t_uint16)": {
        "encoding": "mapping",
        "key": "t_address",
        "label": "mapping(address => uint16)",
        "numberOfBytes": "32",
        "value": "t_uint16"
      },
      "t_uint16": {
        "encoding": "inplace",
        "label": "uint16",
        "numberOfBytes": "2"
      },
      "t_uint256": {
        "encoding": "inplace",
        "label": "uint256",
        "numberOfBytes": "32"
      },
      "t_uint8": {
        "encoding": "inplace",
        "label": "uint8",
        "numberOfBytes": "1"
      }
    }
  }
}